:020000040800F2
:10000000480500208D160008590100085B01000812
:100010005F0100086301000867010008000000009C
:100020000000000000000000000000006B0100085C
:100030006D010008000000006F0100087101000858
:10004000A7160008A7160008A7160008A71600089C
:10005000A7160008A7160008A7160008A71600088C
:10006000A7160008A7160008A7160008A71600087C
:10007000A7160008A7160008A7160008A71600086C
:10008000A7160008A7160008A7160008A71600085C
:10009000A7160008A7160008A7160008A71600084C
:1000A000A7160008A7160008A7160008A71600083C
:1000B000A7160008C703000873010008A716000868
:1000C000A7160008A7160008A7160008A71600081C
:1000D000A716000801160008A7160008A7160008B2
:1000E000A7160008A7160008A7160008A7160008FC
:1000F000A7160008A7160008A7160008A7160008EC
:10010000A7160008A7160008A7160008A7160008DB
:10011000A7160008A7160008A7160008A7160008CB
:10012000A7160008A7160008A7160008A7160008BB
:10013000DFF810D003F0F0F800480047490100084C
:10014000AFF300804805002010B501F0DBF801F0A6
:1001500001F9002010BD0000704700BFFEE700BF9E
:10016000FEE700BFFEE700BFFEE77047704770473D
:10017000704710B50121044802F081FD18B101213A
:10018000014802F08DFD10BD000800400CB50020B4
:10019000019000906C48006840F480306A49086023
:1001A00000BF6948006800F4003000900198401CCE
:1001B0000190009818B90198B0F5A06FF1D162488C
:1001C000006800F4003010B10120009001E0002030
:1001D00000900098012843D15C48006840F010006E
:1001E0005A4908600846006820F003000860084685
:1001F000006840F002000860534840685249486077
:100200000846406848600846406840F4806048609E
:100210000846406820F47C1048600846406840F476
:10022000E81048600846006840F08070086000BF31
:100230004548006800F000700028F9D04248406846
:1002400020F00300404948600846406840F0020042
:10025000486000BF3C48406800F00C000828F9D115
:100260000CBD10B5FFF792FF10BD10B53648006801
:1002700040F00100344908600846406834490840AD
:100280003149486008460068324908402E490860F4
:100290000846006820F4802008600846406820F482
:1002A000FE0048604FF41F008860FFF7DAFF4FF050
:1002B00000602949086010BD10B50021002000220F
:1002C000214B5B6803F00C0121B1042906D00829F9
:1002D00028D107E0214B224C236027E01F4B204C04
:1002E000236023E0184B5B6803F47010164B5B68C7
:1002F00003F48032022303EB904022B9194B4343AD
:10030000174C23600DE0104B5B6803F4003323B1FE
:10031000144B4343124C236003E0104B4343104CF7
:10032000236003E00D4B0E4C236000BF00BF064B63
:100330005B68C3F303130C4CE15C094B1B68CB40B7
:10034000074C236010BD0000001002400020024056
:100350000000FFF8FFFFF6FE08ED00E000127A0053
:100360000000002000093D00040000207FB5054684
:100370000C460121022001F032FDADF80850ADF825
:1003800004400020ADF80A00ADF8060001A94E486F
:1003900001F050FE012211464B4802F0C2F91D2027
:1003A0008DF8000000208DF8010003208DF8020078
:1003B00001208DF80300684601F07FF901214248D1
:1003C00002F094F97FBD10B501213F4802F057FCBF
:1003D00058B101213C4802F063FC3C48006808B970
:1003E000012000E000203949086010BD30B589B017
:1003F00005460C460121022001F0F1FC01211120EB
:1004000001F0E0FC0121324801F0F1FAC020ADF822
:10041000200018208DF8230003208DF8220008A961
:100420002C4801F013FAADF81850ADF81440002034
:10043000ADF81A00ADF8160005A9234801F0FAFD41
:100440007020ADF804000120ADF806000020ADF8E2
:100450000C0001A91C4801F02AFE01A91A4801F06C
:1004600068FE0821184802F071FA0821164802F0C7
:1004700076FA0121144802F039F909B030BD0EB501
:100480000121042001F0ABFC134800684FF47A719D
:10049000B0FBF1F0401E80B2ADF804000020ADF8D2
:1004A0000000ADF80600ADF8020069460B4801F007
:1004B000C1FD01221146094802F033F90121074824
:1004C00002F014F90EBD0000000400409401234224
:1004D000000C1A000010014000000020000800403D
:1004E00008B501215C2001F06DFC1020ADF8000082
:1004F00004208DF803006946FE4801F0A7F920208A
:10050000ADF8000004208DF803006946F94801F0B9
:100510009DF94020ADF8000004208DF803006946E5
:10052000F44801F093F98020ADF8000004208DF824
:1005300003006946EF4801F089F91020ADF800008A
:1005400004208DF803006946EB4801F07FF9202074
:10055000ADF8000004208DF803006946E64801F07C
:1005600075F90120ADF8000004208DF803006946FC
:10057000E24801F06BF90220ADF8000004208DF88C
:1005800003006946DD4801F061F908BD08B50121A5
:100590004FF4C07001F016FC4FF40050ADF80000AD
:1005A00004208DF803006946D54801F04FF94FF457
:1005B0008040ADF8000004208DF803004003ADF842
:1005C000000004208DF803006946CC4801F03EF994
:1005D0000120ADF8000004208DF803006946C948E9
:1005E00001F034F90220ADF8000004208DF803007A
:1005F0006946C44801F02AF98020ADF800000420C3
:100600008DF803006946C04801F020F94FF40060FE
:10061000ADF8000004208DF803006946B84801F0E9
:1006200015F94FF48050ADF8000004208DF8030058
:100630006946B34801F00AF908BD08B50121082050
:1006400001F0C0FB4FF48050ADF8000004208DF89D
:1006500003006946A94801F0F9F84FF40050ADF8DD
:10066000000004208DF803006946A44801F0EEF86C
:100670004FF48040ADF8000004208DF80300694677
:100680009E4801F0E3F84FF40040ADF8000004206C
:100690008DF803006946994801F0D8F808BD10B5F7
:1006A0001021944801F065F998490870202191487B
:1006B00001F05FF99549487040218E4801F059F9E1
:1006C0009249887080218B4801F053F98F49C87096
:1006D0001021894801F04DF98C4908712021864884
:1006E00001F047F9894948710121844801F041F935
:1006F000864988710221814801F03BF98349C8711C
:1007000010BD10B54FF400517D4801F032F9804919
:1007100008704FF480417A4801F02BF97C49487009
:100720004FF40041764801F024F97949887001219D
:10073000744801F01EF97649C8700221714801F031
:1007400018F97349087180216F4801F012F9704956
:1007500048714FF400616A4801F00BF96C498871E7
:100760004FF48051664801F004F96949C87110BD21
:1007700010B54FF48051614801F0FBF865490870ED
:100780004FF400515D4801F0F4F8624948704FF4AD
:1007900080415A4801F0EDF85E4988704FF40041FD
:1007A000564801F0E6F85B49C87010BD2DE9F041EC
:1007B000FFF775FF55480078574991F900104843F5
:1007C00052494978544A92F9012001FB02004F49ED
:1007D0008978514A92F9022001FB02014B48C07806
:1007E0004D4A92F9032000FB0210484909794A4A10
:1007F00092F9042001FB020044494979464A92F9E2
:10080000052001FB020041498979434A92F90620FB
:1008100001FB02003D49C9793F4A92F9072001FBDB
:100820000204204602F01EFD80463C4902F0AAFC6C
:1008300006463B48006802F01EFD0746314602F0BE
:1008400049FC054602F01CFD36490860204602F0CE
:1008500009FD8046314902F095FC064630480068A3
:1008600002F009FD0746314602F086FC054602F01B
:1008700007FD2D490860084601682A48006800F015
:1008800079FABDE8F0812DE9F041FFF73AFF204801
:100890000078214991F9001048431D4949781E4AC2
:1008A00092F9012001FB0200194989781A4A92F94C
:1008B000022001FB02011648C078174A92F9032072
:1008C00000FB021012490979134A92F9042001FB36
:1008D00002000F494979104A92F9052001FB0200F4
:1008E0000B4989790C4A92F9062001FB020008495C
:1008F000C9791BE00008014000100140000C0140D4
:10090000001C014000200140001801401C00002094
:1009100014000020240000205A3300080000C040CA
:10092000280000202C00002030000020974A92F977
:10093000072001FB0204204602F094FC8046944903
:1009400002F020FC06469348006802F094FC07463B
:10095000314602F011FC054602F092FC8E49086017
:10096000204602F07FFC8046894902F00BFC0646D7
:100970008848006802F07FFC0746314602F0AAFB77
:10098000054602F07DFC85490860084601688248FA
:10099000006800F0EFF9BDE8F08170B5044600F0A2
:1009A00001FA00F00BFA51E0002525E0FFF777FE91
:1009B0007B4800787A49497808447949897808441D
:1009C0007749C978084476490979084474494979CE
:1009D00008447349897908447149C9790844C5B202
:1009E000042D01DDFFF7E2FE022D05DC00214FF0B2
:1009F000804002F00FF900E0D8E700BF00214FF07F
:100A0000804002F007F91CE0012C0DD178206149EB
:100A10000860FFF7CBFE00F05CFA10F5E17F10DC18
:100A200028205C4908600DE0FFF7C0FE00F051FA95
:100A300010F5E17F05DC00214FF0804002F0EAF87C
:100A400000E0E1E700BF601EC4B200BF002CABD1E4
:100A500070BD70B5044600F099F900F0B9F951E0A5
:100A6000002525E0FFF74DFE4E4800784D494978B6
:100A700008444C49897808444A49C9780844494996
:100A8000097908444749497908444649897908441D
:100A90004449C9790844C5B2042D01DDFFF7F3FECE
:100AA000022D05DC00214FF0804002F0B3F800E099
:100AB000D8E700BF00214FF0804002F0ABF81CE007
:100AC000012C0DD1782033490860FFF76FFE00F04C
:100AD00000FAB0F5FA7F10DB28202E4908600DE0FF
:100AE000FFF7D1FE00F0F5F9B0F5FA7F05DB002144
:100AF0004FF0804002F08EF800E0E1E700BF601E9A
:100B0000C4B200BF002CABD100F04CF900F056F994
:100B100070BD10B500214FF0804002F07BF87820C6
:100B20001C49086011E000F03DF900F051F900F0B7
:100B3000D0F940F20E61884207D100F033F900F09D
:100B40003DF928201349086000E0ECE700BF10BD24
:100B500010B500214FF0804002F05CF878200D497C
:100B6000086010E000F012F900F028F900F0B1F987
:100B700010F5E16F07D100F015F900F01FF92820FA
:100B80000449086000E0EDE700BF10BD5A330008DB
:100B90000000C040280000202C0000203000002071
:100BA0001C0000201400002008B50121202001F0C5
:100BB00009F90121080201F005F94FF40070ADF8C0
:100BC000000010208DF8030003208DF80200694614
:100BD000844800F03BFE4FF48060ADF80000102028
:100BE0008DF8030003208DF8020069467D4800F06F
:100BF0002DFE4020ADF8000010208DF803000320EA
:100C00008DF802006946784800F020FE8020ADF89B
:100C1000000010208DF8030003208DF802006946C3
:100C2000714800F013FE08BD73E04FF08B416F4830
:100C3000006802F0D9FA05466D4902F0A3FA0446AD
:100C40006C4902F0D1FA6C490860084601686B48AB
:100C5000006802F091FA6A4908600846016869482C
:100C6000006802F037FA674908606748016864481D
:100C7000006802F081FA6549086008460168644826
:100C800002F080FA05465F480168624802F07AFA8D
:100C900006465B480168604802F074FA0746314630
:100CA00002F018FA0446294602F014FA5B4908607B
:100CB000534800685449086058480068584908601B
:100CC0004FF07F514C48006802F05CFA05465448EA
:100CD0000168284602F053FA0446464902F084FAB5
:100CE00050490860084601684F4802F04BFA044634
:100CF0003F4902F079FA4D4908600846006802F061
:100D0000BFFA84B221464A4801F088FF012000F072
:100D1000F0FB8AE710B54FF48061324800F043FEE3
:100D20004FF400712F4800F040FE40212E4800F0A3
:100D30003AFE80212C4800F038FE10BD10B500218D
:100D40003B4801F06DFF0021394801F067FF4FF487
:100D50008061244800F029FE4FF40071214800F022
:100D600024FE4021204800F020FE80211E4800F093
:100D70001CFE10BD70B504460D46A1B22C4801F012
:100D80004FFFA9B22A4801F049FF70BD10B54FF4DA
:100D90008061144800F009FE4FF40071114800F022
:100DA00002FE10BD10B54FF480610E4800F0FBFD4F
:100DB0004FF400710B4800F0F8FD10BD10B5402154
:100DC000094800F0F0FD8021074800F0EEFD10BD5D
:100DD00010B54021044800F0E8FD8021024800F0F1
:100DE000E2FD10BD0020014000140140540000202D
:100DF000333353400AD7233C38000020340000200E
:100E00003C0000204000002048000020440000205A
:100E1000CDCC4C3ECDCCCC3D0000C0404C000020A1
:100E2000580000205C00002000007A4450000020A0
:100E30000004004000B587B00121084600F0CFFF54
:100E40000121042000F0BEFF48208DF81B00032084
:100E5000ADF818008DF81A0006A9274800F0F6FC36
:100E60000020ADF81200ADF80E004FF6FF70ADF89F
:100E700010000020ADF80C008DF8140003A94FF00D
:100E8000804001F0D7F8684601F013FC0020ADF86F
:100E900000000F20ADF8080069464FF0804001F0D7
:100EA0005CFB0420ADF800000F20ADF80800694697
:100EB0004FF0804001F051FB00231A4603214FF010
:100EC000804001F0C6FC0121880701F00FFC07B04B
:100ED00000BD10B54FF0804001F0BFFE00B210BD64
:100EE00010B5FFF7F6FF0446052322460221084607
:100EF00000F031F910BD00000008014008B50121E3
:100F0000402000F05FFF14208DF8030003208DF8CF
:100F100002000220ADF800006946F84800F096FC97
:100F20000420ADF800006946F44800F08FFC01226F
:100F30000221F24800F03BFD01220421EF4800F0BD
:100F400036FD08BD10B501220421EC4800F02FFD4C
:100F500001220221E94800F02AFD00220421E7488D
:100F600000F025FD00220221E44800F020FD10BD24
:100F700010B500220421E14800F019FD01220221F0
:100F8000DE4800F014FD01220421DC4800F00FFDD2
:100F900010BD70B50546002413E08020204100EA12
:100FA00005020421D54800F002FD01220221D348A8
:100FB00000F0FDFC00220221D04800F0F8FC601C8B
:100FC000C4B2082CE9DB01220221CC4800F0EFFC7E
:100FD00000220221C94800F0EAFC70BD10B50446A9
:100FE000FFF7B0FF7820FFF7D4FF0020FFF7D1FF15
:100FF0002046FFF7CEFFFFF7BBFF10BD10B504463C
:10100000FFF7A0FF7820FFF7C4FF4020FFF7C1FFE4
:101010002046FFF7BEFFFFF7ABFF10BD70B50546DA
:101020000C4645F0B000FFF7D9FF102141EA14103B
:10103000FFF7D4FF04F00F00FFF7D0FF70BD70B5CD
:1010400000240EE000212046FFF7E8FF002504E021
:101050000020FFF7D3FF681CC5B2802DF8DB601CB1
:10106000C4B2082CEEDB70BD2DE9F04105460E46FA
:101070001746721ED206110E6A1E5206100EFFF798
:10108000CDFF002409E0A7F120019D4A02EB0111E8
:10109000085DFFF7B3FF601CC4B2082CF3DB721EBF
:1010A000D206110E6A1E012303EB4202D0B2FFF7F3
:1010B000B5FF00240BE0A7F12001914A02EB0112D9
:1010C00004F10801505CFFF799FF601CC4B2082CC2
:1010D000F1DBBDE8F0812DE9F04107460E461546EB
:1010E000002407E02A5D3019C1B23846FFF7BCFF83
:1010F000601CC4B2285D0028F4D1BDE8F08110B5B1
:101100000246012000E050430B1EA1F10101FAD17B
:1011100010BD2DE9F04780460E4617461D460024B7
:1011200015E0281B411E0A20FFF7E9FFB7FBF0F08E
:101130000A21B0FBF1F201FB120000F13009301975
:10114000C1B24A464046FFF78FFF601CC4B2AC42B2
:10115000E7DBBDE8F0872DE9F04781468846154674
:101160001E46002D06DB2B2241464846FFF77CFF3A
:101170002F4605E02D2241464846FFF775FF6F4296
:10118000002417E0301B411E0A20FFF7B8FFB7FB11
:10119000F0F00A21B0FBF1F201FB120000F1300A7D
:1011A00008EB0400401CC1B252464846FFF75CFF02
:1011B000601CC4B2B442E5DBBDE8F0872DE9F0471E
:1011C00081460E4690461F4600241DE0381B411EF6
:1011D0001020FFF794FFB8FBF0F000F00F050A2D88
:1011E00008DA05F13000C2B23019C1B24846FFF743
:1011F0003BFF07E005F13700C2B23019C1B24846E3
:10120000FFF732FF601CC4B2BC42DFDBBDE8F087F1
:101210002DE9F04780460E4617461D46002412E091
:10122000281B411E0220FFF76AFFB7FBF0F000F019
:10123000010000F130093019C1B24A464046FFF7BB
:1012400013FF601CC4B2AC42EADBBDE8F08770B5A6
:10125000002406E0002500E06D1CB5F57A7FFBD385
:10126000641CB4F57A7FF5D3FFF748FEAE20FFF794
:10127000B5FED520FFF7B2FE8020FFF7AFFEA82015
:10128000FFF7ACFE3F20FFF7A9FED320FFF7A6FE35
:101290000020FFF7A3FE4020FFF7A0FEA120FFF7EC
:1012A0009DFEC820FFF79AFEDA20FFF797FE122076
:1012B000FFF794FE8120FFF791FECF20FFF78EFE0F
:1012C000D920FFF78BFEF120FFF788FEDB20FFF728
:1012D00085FE3020FFF782FEA420FFF77FFEA620C8
:1012E000FFF77CFE8D20FFF779FE1420FFF776FED6
:1012F000AF20FFF773FEFFF7A2FE70BD001801409C
:101300006233000810B500F0B7F8FFF7E9F8FFF70F
:101310003DF9FFF792F9FFF79AFFFFF78BFDFFF713
:1013200043FC12214FF4C870FFF760F810BD10B5F0
:10133000FFF7F0FC0220FFF730FBFFF7EAFB02208B
:10134000FFF72BFBFFF704FC0220FFF726FBFFF75C
:10135000F5FC10BD10B5FFF7DDFC0420FFF71DFB09
:10136000FFF7F6FB0220FFF718FBFFF7F1FB022067
:10137000FFF713FBFFF7E2FCC82000F0BAF8FFF715
:10138000C9FC0420FFF765FBFFF7C3FB0220FFF752
:1013900004FBFFF7DDFB0220FFF7FFFAFFF7CEFCAF
:1013A000C82000F0A6F8FFF7B5FC0420FFF751FBBA
:1013B000FFF7AFFB0220FFF7F0FAFFF7C9FB0720AA
:1013C000FFF7EBFAFFF7C4FB0620FFF7E6FAFFF79B
:1013D000A0FB322000F08DF8FFF7B0FC10BD10B577
:1013E000FFF798FC0820FFF7D8FAFFF7A7FC10BD1D
:1013F00070B59AB068221F49684601F059FE002472
:10140000FFF788FC00BF2FE0601C5DF830005DF83E
:101410003410451A6946601C01EBC000406801EBBE
:10142000C4014968461A002D03DDE8B2FFF7B5FA9A
:1014300005E0002D03DA6942C8B2FFF70AFB002E6F
:1014400007DDFFF766FBF0B2FFF7A7FAFFF780FBB7
:1014500009E0002E07DAFFF77BFB7142C8B2FFF705
:101460009CFAFFF756FB641C0C2CCDD3FFF766FCEF
:101470001AB070BD5439000810B56FF0040000F0C8
:1014800066F92E4800682E49B0FBF1F02D4908702E
:101490000846007800EB4001C1EBC0104FF6FF7129
:1014A00001EAC0002849088010BD0146254A12788B
:1014B0004A434FF0E0235A6100229A611A461269AA
:1014C00042F001021A6100BF4FF0E022106900F003
:1014D00001021AB100F48032002AF5D04FF0E02268
:1014E000126922F001024FF0E0231A6100229A6192
:1014F00070470146144A12884A434FF0E0235A616C
:1015000000229A611A46126942F001021A6100BF74
:101510004FF0E022106900F001021AB100F48032AD
:10152000002AF5D04FF0E022126922F001024FF0BC
:10153000E0231A6100229A61704700000000002039
:1015400000127A00600000206200002000BF704797
:1015500000BF4A4A128802F04002002AF9D0C2B203
:10156000464B1B1D1A80704710B586B004460121FA
:1015700044F2040000F026FC4FF40070ADF81400B3
:1015800003208DF8160018208DF8170005A93C4897
:1015900000F05CF94FF48060ADF8140004208DF881
:1015A000170005A9364800F051F925208DF80000F4
:1015B00003208DF801008DF8020001208DF8030052
:1015C000684600F07AF801940020ADF80800ADF804
:1015D0000A00ADF80C00ADF810000C20ADF80E00BC
:1015E00001A9264801F0A3FB012240F2255123481E
:1015F00001F035FC0121214801F025FC06B010BDA9
:1016000010B540F225511D4801F00EFD10B31B48E6
:1016100001F08AFCC4B21B48008800F40040C8B93D
:101620001848008800F4804060B10A2C03D00020E4
:101630001449088020E01348008840F40040114914
:10164000088019E00D2C06D10E48008840F4804037
:101650000C49088010E00B480088C0F30D000A49CF
:101660000C5408480088401C064908800846008839
:10167000C72801DD0020088010BD000000380140AF
:1016800000080140680000208000002006488047D4
:1016900006480047FEE7FEE7FEE7FEE7FEE7FEE757
:1016A000FEE7FEE7FEE7FEE76B02000831010008F7
:1016B00031490143314A1160704770B50021002360
:1016C0000F22C47804B32D4C246804F4E064C4F5FC
:1016D000E064210AC1F10403CA40447804FA03F12A
:1016E0008478144021430901254C0678A1550478DB
:1016F00004F01F050124AC4005786D11AD0005F123
:10170000E025C5F8004109E0047804F01F05012434
:10171000AC401C4D0678761145F8264070BD1A4A3B
:101720000A400243154B1B1F1A60704739B1134A18
:10173000121D12680243114B1B1D1A6006E00F4A6E
:10174000121D126882430D4B1B1D1A60704704283E
:1017500008D14FF0E021096941F004014FF0E02287
:10176000116107E04FF0E021096921F004014FF019
:10177000E0221161704700000000FA050CED00E066
:1017800000E400E080E100E080FFFF1F10B50446A8
:10179000CC48844208D10121042000F02DFB002117
:1017A000042000F029FB46E0C748844208D101210B
:1017B000082000F021FB0021082000F01DFB3AE08A
:1017C000C248844208D10121102000F015FB0021FD
:1017D000102000F011FB2EE0BD48844208D1012109
:1017E000202000F009FB0021202000F005FB22E072
:1017F000B848844208D10121402000F0FDFA0021C0
:10180000402000F0F9FA16E0B348844208D10121E3
:10181000802000F0F1FA0021802000F0EDFA0AE0CB
:10182000AE48844207D10121801500F0E5FA00217D
:10183000A01500F0E1FA10BD10B50121084600F036
:10184000DBFA0021012000F0D7FA10BD2DE9F041AC
:10185000024600250026002000230024002791F8DE
:1018600003C00CF00F0591F803C00CF0100CBCF194
:10187000000F03D091F802C04CEA050591F800C0B2
:10188000BCF1000F31D0146800202BE04FF0010CA8
:101890000CFA00F3B1F800C00CEA03069E4220D116
:1018A00083004FF00F0C0CFA03F7BC4305FA03FC5E
:1018B0004CEA040491F803C0BCF1280F06D14FF0A4
:1018C000010C0CFA00FCC2F814C00AE091F803C045
:1018D000BCF1480F05D14FF0010C0CFA00FCC2F826
:1018E00010C0401C0828D1D31460B1F800C0BCF16E
:1018F000FF0F34DD546800202EE000F1080C4FF09B
:10190000010808FA0CF3B1F800C00CEA03069E4285
:1019100021D183004FF00F0C0CFA03F7BC4305FAFA
:1019200003FC4CEA040491F803C0BCF1280F05D174
:1019300000F1080C08FA0CF8C2F8148091F803C002
:10194000BCF1480F07D100F1080C4FF0010808FA6C
:101950000CF8C2F81080401C0828CED35460BDE8B3
:10196000F0814FF6FF710180022181700421C17066
:1019700070470246002093680B400BB1012000E045
:10198000002070470146886880B2704702460020F8
:10199000D3680B400BB1012000E0002070470146E6
:1019A000C86880B2704701617047416170470AB1F1
:1019B000016100E041617047C16070474FF48032BF
:1019C0000A4382618161826182698269704702464D
:1019D0000020434B18684FF68073184040EA02100D
:1019E00008433F4B186070473E49C8617047F0B5E7
:1019F0000A46002300240021002500F00046B6F12D
:101A0000004F02D1364EF16901E0354E7168C0F3E6
:101A1000034583B200F44016B6F5401F08D121F00B
:101A200070612F4E766826F070662D4F7E6012E052
:101A300000F48016B6F5801F06D1032606FA05F4D9
:101A4000A14341F0706106E0460D360103FA06F647
:101A5000B14341F0706122B1460D360103FA06F63A
:101A6000314300F00046B6F1004F02D11C4EF16147
:101A700001E01B4E7160F0BD30B500228B071C0FDA
:101A80000F2303FA04F2164B08338C1053F824305A
:101A90009343134C08348D1044F8253023468C10A2
:101AA00053F824308C07240F00FA04F423430C4C21
:101AB00008348D1044F8253030BD0A49DC31086007
:101AC0007047000000080140000C01400010014078
:101AD0000014014000180140001C0140002001409A
:101AE0000000014000002042DF48006840F0010093
:101AF000DD49086008464068DC490840DA4948602A
:101B000008460068DA490840D74908600846006876
:101B100020F4802008600846406820F4FE004860F9
:101B20004FF41F0088607047CF49096821F4803165
:101B3000CD4A11601146096821F480211160B0F589
:101B4000803F03D0B0F5802F0ED106E0C64909686A
:101B500041F48031C44A116007E0C349096841F487
:101B6000A021C14A116000E000BF00BF704710B55E
:101B700001460022002300204A11012A02D1BA4C5A
:101B8000236806E0022A02D1B74C236A01E0B64C72
:101B9000636A01F01F02012494401C400CB1012033
:101BA00000E0002010BD38B5002000900024002582
:101BB00000BF3120FFF7DBFF05460098401C009076
:101BC0000098B0F5A06F01D0002DF2D03120FFF7C2
:101BD000CEFF08B1012400E00024204638BD0146B4
:101BE0000020A14A106820F0F80040EAC10010600F
:101BF0007047A04908607047024600209A4B586819
:101C000020F47C1042EA01031843974B5860704758
:101C100098490866704701460020934A506820F0B2
:101C200003000843506070478F48406800F00C0084
:101C30007047014600208C4A506820F0F0000843AD
:101C40005060704701460020874A506820F4E060E9
:101C500008435060704701460020834A506820F4D2
:101C6000605040EAC1005060704729B17E4A527A04
:101C700002437D4B5A7204E07B4A527A82437A4B8C
:101C80005A7270477B49D83108607047014600207E
:101C9000754A506820F44040084350607047002166
:101CA000714A20321170704A82F82010012802D047
:101CB00004280AD104E001216B4A2032117005E0AA
:101CC0000521694A2032117000E000BF00BF704753
:101CD0006949086070476449096A0143624A1162B0
:101CE0007047654944390860704730B500210022CB
:101CF000002400235C4D6D6805F00C0121B104291E
:101D000005D0082923D105E05C4D056022E05B4D3C
:101D100005601FE0544D6D6805F47012524D6D68FA
:101D200005F48034022505EB92421CB9544D55430D
:101D300005600BE04C4D6D6805F400351DB1504D4C
:101D40005543056002E04D4D5543056002E04B4DA3
:101D5000056000BF00BF444D6D6805F0F001090942
:101D6000484D6B5C0568DD4045603F4D6D6805F48E
:101D7000E061090A434D6B5C4568DD4085603A4D82
:101D80006D6805F46051C90A3E4D6B5C4568DD40E5
:101D9000C560354D6D6805F44041890B3A4D6B5C6B
:101DA000C568B5FBF3F5056130BD29B12E4A52690E
:101DB00002432D4B5A6104E02B4A526982432A4B5D
:101DC0005A61704729B1284A92690243264B9A61A9
:101DD00004E0254A92698243234B9A61704729B1F6
:101DE000214AD2690243204BDA6104E01E4AD269DB
:101DF00082431D4BDA61704729B11B4AD268024306
:101E0000194BDA6004E0184AD2688243164BDA6054
:101E1000704729B1144A12690243134B1A6104E056
:101E2000114A12698243104B1A61704712494039B6
:101E3000086070470F49C86470470B49C871704704
:101E40000948406A40F0807007494862704701467F
:101E50000020054A92680A400AB1012000E00020F3
:101E60007047014988727047001002400000FFF877
:101E7000FFFFF6FE000042428004424200127A0058
:101E800000093D006A0000207A00002010B50446D9
:101E9000FE48844208D10121C014FFF7ADFF0021A4
:101EA000E014FFF7A9FFC4E0B4F1804F08D101218D
:101EB0000846FFF7AEFF00210120FFF7AAFFB8E0B8
:101EC000F348844208D101210220FFF7A2FF00213C
:101ED0000220FFF79EFFACE0EE48844208D10121CA
:101EE0000420FFF796FF00210420FFF792FFA0E0F7
:101EF000E948844208D101210820FFF78AFF002128
:101F00000820FFF786FF94E0E448844208D10121CD
:101F10001020FFF77EFF00211020FFF77AFF88E0F6
:101F2000DF48844208D101212020FFF772FF002101
:101F30002020FFF76EFF7CE0DA48844208D10121BF
:101F40004014FFF759FF00216014FFF755FF70E0C0
:101F5000D548844209D10121C804FFF74DFF002173
:101F60004FF40020FFF748FF63E0D048844209D1D6
:101F700001210805FFF740FF00214FF48010FFF713
:101F80003BFF56E0CA48844209D101214805FFF7CA
:101F900033FF00214FF40010FFF72EFF49E0C54842
:101FA000844208D101214020FFF733FF0021402067
:101FB000FFF72FFF3DE0C048844208D10121802077
:101FC000FFF727FF00218020FFF723FF31E0BB4808
:101FD000844208D101218015FFF71BFF0021A015C5
:101FE000FFF717FF25E0B648844209D10121080414
:101FF000FFF702FF00214FF48030FFF7FDFE18E0ED
:10200000B048844209D101214804FFF7F5FE0021C0
:102010004FF40030FFF7F0FE0BE0AB48844208D1EC
:1020200001218804FFF7E8FE00214FF48020FFF72C
:10203000E3FE10BD00220288944B98420ED0994BCB
:1020400098420BD0B0F1804F08D0914B984205D008
:10205000904B984202D0904B984204D14FF68F7328
:102060001A404B881A438D4B984207D08C4B9842AC
:1020700004D04FF6FF431A40CB881A4302808B8866
:1020800083850B880385814B98420BD0854B984202
:1020900008D08B4B984205D08A4B984202D08A4B8D
:1020A000984201D10B7A038601238382704770B571
:1020B000002400220023058C4FF6FE76354005846F
:1020C000028C8388048B4FF68F752C40B51E2C40F4
:1020D0000D882C43751E2A400D892A434D882A43BA
:1020E0006A4DA8420BD06F4DA84208D0744DA8424B
:1020F00005D0744DA84202D0734DA84213D14FF6BB
:10210000F7752A404D892A434FF6FB752A408D8882
:102110002A434FF6FF652B404FF6FF552B408D8924
:102120002B43CD892B4383800483CD88858602840D
:1021300070BD70B5002400220023058C4FF6EF76A9
:1021400035400584028C8388048B48F6FF752C404B
:102150004FF6FF452C400D884FF6FF7606EA052521
:102160002C434FF6DF752A400D8906EA05152A43F0
:102170004D8806EA05152A43444DA84202D0494D30
:10218000A8421DD14FF67F752A404D894FF6FF7644
:1021900006EA05152A434FF6BF752A408D8806EAE0
:1021A00005152A434FF6FF352B404FF2FF752B40A4
:1021B0008D8906EA85052B43CD8906EA85052B43E3
:1021C00083800483CD880587028470BD70B50024A8
:1021D00000220023058C4FF6FF6635400584028CF3
:1021E0008388848B4FF68F752C404FF6FC752C40FE
:1021F0000D882C434FF6FF552A400D894FF6FF7688
:1022000006EA05252A434D8806EA05252A431F4D7F
:10221000A84202D0234DA8421DD14FF2FF752A409B
:102220004D894FF6FF7606EA05252A434FF6FF351E
:102230002A408D8806EA05252A434EF6FF752B4075
:102240004DF6FF752B408D8906EA05152B43CD8988
:1022500006EA05152B4383808483CD888587028415
:1022600070BD70B5002200230024058C4EF6FF7669
:1022700035400584038C8488828B48F6FF752A409C
:102280004FF6FF452A400D8820E00000002C014059
:102290000004004000080040000C00400010004016
:1022A0000014004000340140004C01400050014047
:1022B0000054014000180040001C00400020004075
:1022C0000040014000440140004801404FF6FF76C5
:1022D00006EA05252A434DF6FF752B400D8906EACF
:1022E00005352B434D8806EA05352B43FA4DA842A8
:1022F00002D0FA4DA84208D14BF6FF752C408D89CB
:102300004FF6FF7606EA85152C4384808283CD88BC
:10231000A0F84050038470BD828B4FF2FF331A4007
:102320008283828B4FF6FF7303EA01231A43828371
:102330007047F0B50C461546002200210026078C98
:102340004EF6FF7C07EA0C070784828B018C4FF660
:10235000FF7707EA043640F6FF473A404FF6FF772B
:1023600007EA05273A434FF6FF7707EA03373A4370
:10237000D94FB8420ED0D94FB8420BD0B0F1804FF0
:1023800008D0D74FB84205D0D64FB84202D0D64F6A
:10239000B84206D14DF6FF77394046F480573943AD
:1023A00005E047F6FF57394044F4805739438283AC
:1023B0000184F0BD828B4FF6F3731A408283828BC7
:1023C0000A4382837047F0B50C461546002200216F
:1023D0000026078C4FF6FF6C07EA0C070784828BF8
:1023E000018C4FF6FF7707EA04264FF60C773A4048
:1023F0004FF6FF7707EA03172F433A43B64FB84229
:102400000ED0B64FB8420BD0B0F1804F08D0B44FC9
:10241000B84205D0B34FB84202D0B34FB84206D14C
:102420004FF6FF57394046F48077394305E04FF2C5
:10243000FF57394044F48077394382830184F0BDEB
:10244000028B4FF2FF331A400283028B4FF6FF7369
:1024500003EA01231A4302837047F0B50C46154680
:10246000002200210026078C4FF6EF7C07EA0C07BC
:102470000784028B018C4FF6FF7707EA041640F6BB
:10248000FF473A404FF6FF7707EA03373A434FF6E4
:10249000FF7707EA05273A438F4FB8420ED08F4F98
:1024A000B8420BD0B0F1804F08D08D4FB84205D064
:1024B0008C4FB84202D08C4FB84206D14FF6DF772E
:1024C000394046F01007394305E04FF65F77394051
:1024D00044F01007394302830184F0BD028B4FF6AC
:1024E000F3731A400283028B0A4302837047F0B5EC
:1024F0000C46154600220021068C4FF6FE773E4022
:102500000684028B018C4FF60C7632407E1C06EA64
:1025100003162E433243704EB0420ED06F4EB0427F
:102520000BD0B0F1804F08D06D4EB04205D06D4E4B
:10253000B04202D06C4EB04206D14FF6FD7631402B
:1025400044F00106314305E04FF6F576314044F0A2
:102550000106314302830184F0BD70B505460C4687
:102560005D4885420ED05D4885420BD0B5F1804F65
:1025700008D05B48854205D05A48854202D05A4867
:10258000854200D100E000BF208850B92389A2888D
:1025900061882846FFF7ABFFE1882846FFF79EFFDA
:1025A00025E0208804280AD12389A288618828464A
:1025B000FFF753FFE1882846FFF742FF17E0208826
:1025C00008280AD12389A28861882846FFF7FBFEE4
:1025D000E1882846FFF7EEFE09E02389A28861889A
:1025E0002846FFF7A6FEE1882846FFF795FE70BD56
:1025F0002DE9F04105460C4600260127608808B900
:10260000022600E00026A088012801D1022700E070
:1026100001272088A0B92389A28861882846FFF76E
:1026200066FFE1882846FFF759FF23893A4631467D
:102630002846FFF712FFE1882846FFF701FF13E065
:102640002389A28861882846FFF707FFE18828468A
:10265000FFF7F6FE23893A4631462846FFF747FF43
:10266000E1882846FFF73AFFBDE8F0810A884B88E9
:102670001A438B881A43CB881A430B891A434B8918
:102680001A438B891A43A0F8442070474FF6FF7114
:10269000818000210180C18041800172704700214A
:1026A000018041808180C180018141818181C1811E
:1026B0007047002101804180012181800021C1807B
:1026C000018170470021018041808180C1800181AA
:1026D0004181818170470000002C0140003401409D
:1026E0000004004000080040000C004021B10288B6
:1026F00042F00102028004E002884FF6FE731A40A5
:102700000280704731B1B0F8442042F40042A0F892
:10271000442005E0B0F84420C2F30E02A0F84420A3
:1027200070471AB183890B43838102E083898B430D
:10273000838170478182704741EA0203A0F84830E4
:1027400070471AB183890B43838102E083898B43ED
:102750008381704701894FF6F872114001817047FB
:102760000A46002101894FF68F73194011430181F8
:10277000704730B504460D4629462046FFF7F0FF66
:10278000208940F00700208130BD2DE9F04104464A
:102790000D4616461F46602D06D13B4601223146A6
:1027A0002046FFF75AFE05E03B460122314620460F
:1027B000FFF79DFE29462046FFF7D2FF208940F013
:1027C00007002081BDE8F08130B50C460021018969
:1027D000C9B24FF6FF7505EA032515432543294382
:1027E000018130BD2DE9F04105460E461746984659
:1027F000002443463A4631462846FFF7E5FF2C8938
:102800004FF6F870044044F007044FF68F70044010
:1028100044F070042C81BDE8F081F0B504460D460B
:1028200016461F463B46324629462046FFF7CCFF58
:10283000208940F480402081F0BD0185828270476C
:102840000A46002101884FF68F7319401143018019
:102850007047F0B50C4615461E46002100220023A5
:102860000189028B038C4FF6F877394021434FF6EC
:10287000FC473A4040F201173A434FF6DD773B40C0
:102880004FF6FF7707EA06172F433B430181028388
:102890000384F0BD0A460021018B4FF68F73194067
:1028A0001143018370470A460021018B48F6FF73EC
:1028B00019404FF6FF7303EA02231943018370475F
:1028C0000A460021818B4FF68F7319401143818393
:1028D00070470A460021818B48F6FF7319404FF676
:1028E000FF7303EA022319438183704721B10288F1
:1028F00042F08002028004E002884FF67F731A40A3
:102900000280704721B1828842F00402828004E094
:1029100082884FF6FB731A408280704721B182880B
:1029200042F00802828004E082884FF6F7731A4072
:102930008280704721B1828842F00102828004E0E7
:1029400082884FF6FE731A40828070470A46002143
:10295000018B4FF6F77319401143018370470A4604
:102960000021018B4FF2FF7319404FF6FF7303EA0A
:1029700002231943018370470A460021818B4FF6D9
:10298000F77319401143818370470A460021818BF8
:102990004FF2FF7319404FF6FF7303EA0223194306
:1029A000818370470A460021018B4FF6FB73194063
:1029B0001143018370470A460021018B4FF6FF3314
:1029C00019404FF6FF7303EA02231943018370474E
:1029D0000A460021818B4FF6FB7319401143818316
:1029E00070470A460021818B4FF6FF3319404FF69E
:1029F000FF7303EA02231943818370470A460021CB
:102A0000018B4FF67F7319401143018370470A46CB
:102A10000021018BC1F30E014FF6FF7303EA02237D
:102A20001943018370470A460021818B4FF67F735B
:102A300019401143818370470A460021818BC1F3FD
:102A40000E014FF6FF7303EA022319438183704797
:102A50000A460021018C4FF6FD7319401143018491
:102A600070470A460021018C4FF6F7731940114355
:102A7000018470470A460021018C4FF6DF7319402C
:102A80004FF6FF7303EA02131943018470470A46A5
:102A90000021018C4FF67F7319404FF6FF7303EA54
:102AA00002131943018470470A460021018C4FF636
:102AB000FF5319404FF6FF7303EA022319430184C1
:102AC00070470A460021018C4FF2FF7319404FF600
:102AD000FF7303EA02231943018470470A46002169
:102AE000018C4DF6FF7319404FF6FF7303EA023372
:102AF00019430184704730B5002301248C40A3B2F0
:102B0000048C9C430484048C02FA01F5ADB22C437E
:102B1000048430BD30B5002304248C40A3B2048C5F
:102B20009C430484048C02FA01F5ADB22C43048466
:102B300030BD70B50346002000241846183001252A
:102B40008D40ACB21D8CA5431D8409B1082909D163
:102B500000EB6100056825F0700505600568154308
:102B600005600EE00D1FC5F34E052844056825F4E9
:102B7000E045056005684FF6FF7606EA0226354314
:102B8000056070BD21B1028842F00202028004E0BB
:102B900002884FF6FD731A400280704721B1028807
:102BA00042F00402028004E002884FF6FB731A40F0
:102BB0000280704721B1828842F08002828004E066
:102BC00082884FF67F731A408280704702884FF6E2
:102BD000F7731A40028002880A4302807047828895
:102BE0004FF68F731A40828082880A438280704732
:102BF00002894FF6F8731A40028102890A43028162
:102C0000704702894FF67F731A40028102890A4396
:102C10000281704781847047818570478186704743
:102C20000187704781877047A0F84010704702887D
:102C30004FF6FF431A40028002880A430280704721
:102C40000146888E70470146088F70470146888F7D
:102C500070470146B1F8400070470146888C7047C4
:102C60000146088D704702460020138A0B400BB1C5
:102C7000012000E000207047CA430282704730B54F
:102C80000246002000230024158A05EA01039589E5
:102C900005EA010413B10CB1012000E0002030BDB1
:102CA000CA4302827047000010B50446FB488442C4
:102CB00009D101218803FFF79FF800214FF48040DC
:102CC000FFF79AF832E0F648844209D1012148041E
:102CD000FFF79FF800214FF40030FFF79AF825E046
:102CE000F048844209D101218804FFF792F80021BD
:102CF0004FF48020FFF78DF818E0EB48844209D1AB
:102D00000121C804FFF785F800214FF40020FFF7E8
:102D100080F80BE0E548844208D101210805FFF75F
:102D200078F800214FF48010FFF773F810BD2DE9FB
:102D3000F04786B005460E460024A24600BFA146D5
:102D40000027B08900B100BF2F462C8A4CF6FF70D7
:102D50000440F08804432C82AC894EF6F310044002
:102D6000B08831890843718908430443AC81AC8A37
:102D70004FF6FF400440B0890443AC8201A8FEF73F
:102D8000B4FFC648874202D1DDF810A001E0DDF8AB
:102D90000CA0A88900F4004040B10AEBCA0000EB87
:102DA0000A1031684900B0FBF1F807E00AEBCA00ED
:102DB00000EB0A1031688900B0FBF1F86420B8FB21
:102DC000F0F004012009642101FB1089A88900F4B6
:102DD000004040B1322000EBC900B0FBF1F000F040
:102DE0000700044308E0322000EB09106421B0FB27
:102DF000F1F000F00F0004432C8106B0BDE8F0872D
:102E00004FF41651016000218180C18001810C21A5
:102E1000418100218181704710B502460020108A4F
:102E20004FF2FF0318400B884C8823438C882343C0
:102E3000CC8823431843108210BD002101804180BB
:102E40008180C180704721B1828942F40052828121
:102E500004E082894DF6FF731A4082817047F0B515
:102E60000346002400260025002040F66A17B942D8
:102E700000D100BF1846C1F3421401F01F0601271C
:102E800007FA06F5012C01D10C3004E0022C01D127
:102E9000103000E014301AB107682F43076002E0D9
:102EA0000768AF430760F0BD1AB1838A0B43838282
:102EB00002E0838A8B4383827047028A4FF6F07365
:102EC0001A400282028A0A430282704782894FF2C4
:102ED000FF731A40828182890A438281704721B13F
:102EE000828942F00202828104E082894FF6FD73FA
:102EF0001A4082817047028A4FF6DF731A400282BD
:102F0000028A0A430282704721B1028A42F4804257
:102F1000028204E0028A4BF6FF731A400282704775
:102F2000C1F308028280704701468888C0F3080018
:102F30007047818941F0010181817047028BD2B2D3
:102F40000283028B42EA012202837047028B02F461
:102F50007F420283028B0A430283704721B1828A37
:102F600042F02002828204E0828A4FF6DF731A4028
:102F70008282704721B1828A42F01002828204E08C
:102F8000828A4FF6EF731A408282704721B1828A9B
:102F900042F00802828204E0828A4FF6F7731A40F8
:102FA0008282704721B1828942F40042828103E02B
:102FB0008289C2F30E028281704721B1828A42F473
:102FC0000062828204E0828A4FF2FF731A4082829A
:102FD0007047828A4FF6FB731A408282828A0A43C4
:102FE0008282704721B1828A42F00202828204E02A
:102FF000828A4FF6FD731A40828270470246002093
:10300000B1F5007F00D100BF13880B400BB1012048
:1030100000E00020704701F40072B2F5007F00D19B
:1030200000BFCA430280704770B5024600240023E7
:103030000025002040F66A16B14200D100BFC1F35E
:10304000421501F01F03012606FA03F3012D02D1F8
:103050009689334006E0022D02D1168A334001E002
:10306000968A33400C12012606FA04F4168834407E
:1030700013B10CB1012000E0002070BD10B500229A
:10308000002340F66A14A14200D100BF0A120124B5
:103090009440A3B2DC43048010BD0000003801401E
:1030A0000044004000480040004C004000500040F8
:1030B00040EA01039B0703D009E008C9121F08C0BA
:1030C000042AFAD203E011F8013B00F8013B521E3A
:1030D000F9D27047F0B480EA0102D40F4200B2EB9B
:1030E000410F02D20246084611464A0042D0C30DA3
:1030F000DDB2C1F3C752AD1A202D35DAC1F3160186
:1031000041F4000204B15242C5F1200602FA06F170
:103110002A411044B3EBD05F23D0C4B1012DA0EB02
:10312000C35009DCF0BC4FF0004202EAC352DBB2EC
:1031300000F5000000F0C1B8400000F1807000EB25
:10314000C350A0F1807040EAD170490009E04908FD
:1031500041EAC071A0EBC35000F50000400800EB4D
:10316000C350F0BC00F0A0B86142012202EB410163
:10317000001BF6E7F0BC704781F00041AAE780F041
:103180000040A7E780EA010210B502F000434000CA
:1031900022D04A001FD0010E01EB1261C0F356008D
:1031A000C2F3560240F4000042F40002A0FB0220E9
:1031B00000047F39140400D0401C50EA124001D4AE
:1031C0004000491EC2B20C0604EBD010401C40085F
:1031D000802A02D003E0002010BD20F00100002969
:1031E00000DA0020184310BD30B480EA010202F07A
:1031F000004530F0004221F0004013D090B1C30DE3
:10320000D40DC2F31601C0F31600E41A41F4000114
:1032100040F400027D34914201D3641C00E0490077
:10322000002C02DA30BC002070474FF4000000236D
:10323000914201D3891A034340084FEA4101F7D173
:1032400051B1914202D14FF0004105E002D24FF05E
:10325000010101E06FF0010103EBC450284430BCD0
:1032600000F022B8C10F80EAE0700844CA07962334
:10327000002100F022B896230022114600F01DB86C
:1032800020F00040C10DC0F3160040F400007F297B
:1032900001DA00207047962903DCC1F19601C8408D
:1032A00070479639884070470029A8BF7047401C76
:1032B000490008BF20F00100704710B4B0FA80FC4C
:1032C00000FA0CF050EA010404BF10BC704749B189
:1032D000CCF1200421FA04F411FA0CF118BF0121F9
:1032E00021430843A3EB0C01CB1D4FEA00614FEAD9
:1032F000102042BF002010BC704700EBC3501044A8
:103300000029A4BF10BC7047401C490008BF20F032
:10331000010010BC70470000064C074D06E0E06855
:1033200040F0010394E8070098471034AC42F6D30C
:10333000FCF702FFBC390008DC39000802E008C8CD
:10334000121F08C1002AFAD170477047002001E01F
:1033500001C1121F002AFBD17047EEF4F8FC0408EB
:103360000C1200000000000000000000000000003F
:103370000000000000F800000000000000333000F2
:10338000000000100C06100C0600000000000000F9
:10339000000040C07840C0784000043F04043F046F
:1033A0000400007088FC08300000001820FF211E77
:1033B0000000F008F000E018000000211C031E21AE
:1033C0001E0000F00888700000001E212324192729
:1033D000211010160E000000000000000000000088
:1033E0000000000000E018040200000000071820A0
:1033F000400000020418E000000000402018070010
:103400000000404080F0804040000202010F0102B5
:103410000200000000F0000000000101011F010196
:103420000100000000000000000080B070000000FB
:103430000000000000000000000000010101010187
:10344000010100000000000000000030300000001A
:1034500000000000000080601804006018060100F1
:10346000000000E010080810E000000F10202010FD
:103470000F00001010F8000000000020203F202066
:1034800000000070080808887000003028242221FD
:1034900030000030088888483000001820202011B3
:1034A0000E000000C02010F8000000070424243F94
:1034B000240000F80888880808000019212020113D
:1034C0000E0000E0108888180000000F1120201165
:1034D0000E0000380808C83808000000003F00004F
:1034E00000000070880808887000001C222121223A
:1034F0001C0000E010080810E0000000312222113A
:103500000F00000000C0C0000000000000303000CC
:10351000000000000080000000000000806000004B
:103520000000000080402010080000010204081084
:103530002000404040404040400004040404040493
:103540000400000810204080000000201008040241
:103550000100007048080808F00000000030360143
:103560000000C030C828E810E00007182724231402
:103570000B000000C038E0000000203C23020227BE
:10358000382008F8888888700000203F202020110B
:103590000E00C03008080808380007182020201046
:1035A000080008F808080810E000203F202020103C
:1035B0000F0008F88888E8081000203F202023200A
:1035C000180008F88888E8081000203F2000030051
:1035D0000000C03008080838000007182020221E0C
:1035E000020008F808000008F808203F2101012126
:1035F0003F20000808F8080800000020203F202095
:10360000000000000808F8080800C08080807F00E3
:10361000000008F888C028180800203F200126383C
:10362000200008F8080000000000203F2020202093
:10363000300008F8F800F8F80800203F003F003F8D
:10364000200008F830C00008F808203F20000718C4
:103650003F00E01008080810E0000F1020202010A4
:103660000F0008F808080808F000203F21010101B8
:103670000000E01008080810E0000F18242438505B
:103680004F0008F8888888887000203F2000030CCD
:1036900030200070880808083800003820212122D6
:1036A0001C00180808F8080818000000203F200037
:1036B000000008F808000008F808001F202020205B
:1036C0001F000878880000C83808000007380E017D
:1036D0000000F80800F80008F800033C0700073C69
:1036E0000300081868808068180820302C03032C19
:1036F00030200838C800C83808000000203F2000EB
:10370000000010080808C8380800203826212020AA
:103710001800000000FE020202000000007F40408E
:103720004000000C30C0000000000000000106381E
:10373000C00000020202FE000000004040407F0086
:10374000000000000402020204000000000000006B
:103750000000000000000000000080808080808069
:103760008080000202040000000000000000000051
:1037700000000000808080800000001924222222A6
:103780003F2008F8008080000000003F1120201139
:103790000E000000008080800000000E112020201C
:1037A0001100000000808088F800000E1120201019
:1037B0003F200000808080800000001F2222222203
:1037C0001300008080F0888888180020203F202087
:1037D00000000000808080808000006B94949493AF
:1037E000600008F8008080800000203F2100002059
:1037F0003F2000809898000000000020203F2020FB
:103800000000000000809898000000C08080807F49
:10381000000008F8000080808000203F24022D3046
:103820002000000808F8000000000020203F2020B1
:1038300000008080808080808000203F20003F202A
:10384000003F8080008080800000203F2100002019
:103850003F200000808080800000001F202020206A
:103860001F00808000808000000080FFA1202011C8
:103870000E000000008080808000000E112020A03B
:10388000FF80808080008080800020203F212000F9
:1038900001000000808080808000003324242424E4
:1038A0001900008080E0808000000000001F2020C0
:1038B00000008080000000808000001F2020201079
:1038C0003F20808080000080808000010E3008064C
:1038D000010080800080008080800F300C030C305D
:1038E0000F0000808000808080000020312E0E318B
:1038F0002000808080000080808080818E7018068B
:10390000010000808080808080000021302C2221F6
:10391000300000000000807C020200000000003F38
:10392000404000000000FF00000000000000FF0019
:1039300000000002027C800000000040403F0000C8
:103940000000000601010202040400000000000063
:103950000000000000000000000000000400000063
:10396000000000000400000002000000060000004B
:10397000020000000600000000000000020000003D
:10398000000000000200000002000000040000002F
:103990000200000004000000090000000A0000000E
:1039A000090000000A0000000300000004000000FD
:1039B000030000000400000000000000DC390008E3
:1039C00000000020800000003C3300085C3A000842
:1039D00080000020C80400004C33000800A24A0404
:1039E00000000000000000000102030406070809AF
:1039F00000000000000000000000000000000000C7
:103A0000000000002800000000000000000000008E
:103A100000000000000000000000000000000000A6
:103A20000000000000000000000000000000000096
:103A30000000000000000000000000000000000086
:103A40000000000000000000000001020304010269
:0C3A500003040607080902040608000031
:0400000508000131BD
:00000001FF
